:0802960002230000022104D242
:0C000E00C2AF1202F4D2AF12025680FB07
:100256007F967E00120276E5A025E0F5A043A00178
:10026600E5A0B47F0A7F967E0012027675A0FE2274
:10027600E4FDFCC3ED9FEC9E5015E4FAFB0BBB00BE
:0F028600010AEB64C84A70F50DBD00010C80E45D
:010295002246
:1002D100759850438920758DE6D28E43B710D2BCF4
:0502E100D2ACC299221D
:0400060075A0FE22C1
:09030000D2A8C288D2AAC28A2246
:0E02E600438901758A18758CFCD28CD2A9222E
:0C02F4001200061202D11202E602030002
:03000B00020231BD
:10023100C0E0C0F0C083C082C0D075D008758A18F4
:10024100758CFCAF22AE21120134D0D0D082D08384
:05025100D0F0D0E03206
:030003000201B344
:1001B300C0E0C0D0C3E52194004015D3E522940FDD
:1001C300E5219427500A0522E522700A05218006BD
:0B01D300752100752200D0D0D0E03272
:03001B000201DE01
:1001DE00C0E0C0D0C3E52194004015D3E522940FB2
:1001EE00E5219427500AE5221522700A1521800672
:0B01FE00752100752200D0D0D0E03247
:030023000202B422
:1002B400C0D075D000C007309809C298AF99752393
:0D02C400008F24309902C299D007D0D032AB
:080309008F993099FDC2992281
:060209008B258A268927DF
:10020F00E4FDFCC2ACAB25AA26A9278D828C8312F4
:10021F0000B2FF600A1203090DBD00010C80E6D287
:01022F00AC22
:0102300022AB
:10029E000110001011C0F9A4B0999282F8809088D4
:0502AE0083C6A1868E4D
:100134007580FFE51014601814603014604E2403B9
:100144007060C290D291D292D2937C037DE88034C5
:10015400D290C291D292D2937C037DE81200DF7ECA
:10016400007F64CFCDCFCECCCE8019D290D291C2B5
:1001740092D2937C007D641200DF7E007F0ACFCD93
:10018400CFCECCCE1200DF74112F8012D290D29138
:10019400D292C2937C007D0A1200DF74112DF8E61E
:0F01A400F5800510E510D394034003E4F5102215
:03000000020026D5
:0C002600787FE4F6D8FD75812702006D9C
:1000B200BB010CE58229F582E5833AF583E0225003
:1000C20006E92582F8E622BBFE06E92582F8E2224D
:0D00D200E58229F582E5833AF583E4932267
:1000DF00BC000BBE0029EF8DF084FFADF022E4CC05
:1000EF00F875F008EF2FFFEE33FEEC33FCEE9DECCE
:1000FF00984005FCEE9DFE0FD5F0E9E4CEFD22ED14
:10010F00F8F5F0EE8420D21CFEADF075F008EF2F5D
:10011F00FFED33FD4007985006D5F0F222C398FD4E
:05012F000FD5F0EA22EB
:1000320002000EE493A3F8E493A34003F68001F2D6
:1000420008DFF48029E493A3F85407240CC8C333CF
:10005200C4540F4420C8834004F456800146F6DF9E
:10006200E4800B0102040810204080900296E47E96
:10007200019360BCA3FF543F30E509541FFEE49393
:10008200A360010ECF54C025E060A840B8E493A35A
:10009200FAE493A3F8E493A3C8C582C8CAC583CA85
:1000A200F0A3C8C582C8CAC583CADFE9DEE780BE3D
:0102B300004A
:00000001FF
